:020000040800F2
:100000009014002035020008B5220008B11F000836
:10001000B1220008811D0008872B000800000000A5
:10002000000000000000000000000000AD240008F7
:10003000851D0008000000003D23000899250008E8
:100040004F0200084F0200084F0200084F0200084C
:100050004F0200084F0200084F0200084F0200083C
:100060004F020008891D00084F0200084F020008D7
:100070004F0200084F0200084F0200084F0200081C
:100080004F0200084F0200084F0200084F0200080C
:100090004F0200084F0200084F020008A51D00088B
:1000A0004F0200084F0200084F0200084F020008EC
:1000B000FD2500084F0200084F0200084F0200080B
:1000C0004F0200084F0200084F0200084F020008CC
:1000D0004F0200084F0200084F020008A528000840
:1000E0004F0200084F0200084F02000800F002F81B
:1000F00000F090F80AA090E8000C82448344AAF132
:100100000107DA4501D100F085F8AFF2090EBAE82F
:100110000F0013F0010F18BFFB1A43F0010318473B
:10012000502E0000702E0000103A24BF78C878C10D
:10013000FAD8520724BF30C830C144BF04680C60ED
:10014000704700000023002400250026103A28BF35
:1001500078C1FBD8520728BF30C148BF0B60704739
:100160006E2900F05981702900F09B82662902F007
:100170007D86652902F07A86672902F077866129F3
:1001800002F0768603681B0A28BF41F080016929C6
:1001900000F00681642900F00381752900F00081D8
:1001A0006F2900F02982782900F06782E92900F0A0
:1001B000C381E42900F0C081F52900F0BD81EF2959
:1001C00000F02682F82900F066820368DB0928BF68
:1001D00041F08001632900F06787732900F06C8784
:1001E000E32900F07787F32900F07C87002070472F
:1001F0001FB500F0C9FF04000020002102F020FE1E
:10020000401C60600020002102F004FEE0601FBD81
:1002100010B510BD00F08AFF1146FFF7E9FF02F0AC
:10022000F7FC01F063F803B4FFF7F2FF03BC01F041
:10023000A7F800000948804709480047FEE7FEE7A5
:10024000FEE7FEE7FEE7FEE7FEE7FEE7FEE7FEE786
:1002500004480549054A064B704700009D250008E3
:10026000ED000008900E0020901400209010002057
:10027000901000201CB50C46064B7B44694600904C
:10028000204600F0E2F804460020694600F0F0F84D
:1002900020461CBDF301000010B5431C02E010F81D
:1002A000011B71B18107FAD14FF0013202C88C1ADB
:1002B0008C4314EAC211F9D0C01A0A0603D0C01E3A
:1002C00010BDC01A10BD0A0401D0801E10BD090265
:1002D000FCD0401E10BD70477047704770B5044693
:1002E00085690068C10601D5302600E02026C007D8
:1002F00007D070BDD4E9012130469047206A401CE8
:1003000020626D1EF6D570BD70B504468569007813
:10031000C00707D170BDD4E9012120209047206A91
:10032000401C20626D1EF6D570BD09684A0501D5D6
:1003300040B27047C905FCD500B2704709684A054C
:1003400001D5C0B27047C905FCD580B2704770B501
:100350000C460546012A05D02878800600D5EA69B2
:10036000002302E0012305E05B1C934202D2E05C23
:100370000028F9D1A869E618C01AA861286A1844AB
:1003800028622846FFF7AAFF04E0D5E9012114F806
:10039000010B9047B442F8D32846FFF7B5FF70BD74
:1003A0002DE9F0410646002410687529314616A54E
:1003B00010D0FFF7BAFF002802DA404213A507E089
:1003C00031688A0701D512A502E0490704D511A5B5
:1003D000012401E0FFF7B2FF00210A2206F1240701
:1003E00009E0B0FBF2FCB0FBF2F302FB1C00303082
:1003F00078541846491C0028F3D123462A46304633
:10040000BDE8F04100F061BA000000002D000000DE
:100410002B0000002000000011680268006A5305EC
:1004200001D508700AE0D30501D5088006E013065F
:1004300003D5C217C1E9000200E00860012070473F
:1004400001694A1C02610878704700B58FB0CDE998
:1004500001310021059105497944CDE90310114688
:10046000684600F029F90FB000BD0000E5FFFFFF6E
:100470000A6802F8010B0A60704700002DE9FF5F6F
:1004800015468A460446DFF8AC80F8440027D8E9D0
:1004900000103E46CDE9001010E03AF816106A460A
:1004A00002A800F023FE411C07D02178890603D55D
:1004B000E269391891420DD80744761C20788006ED
:1004C00002D5E069B84205DDAE42E6DB3AF8160037
:1004D0000028E2D1A069C01BA0612046FFF7FEFE04
:1004E000D8E90010CDE90010002017E03AF8181004
:1004F0006A4602A800F0FAFDB0F1FF3F81460BD03A
:1005000000250DF1080B05E0D4E901211BF80500D9
:1005100090476D1C4D45F7D308F10100B04280466D
:10052000E4DB206A384420622046FFF7EDFEBDE898
:10053000FF9F0000E62900002DE9F0418046D21D12
:1005400022F007020025D2E90002F52915A614D0F1
:10055000011E72F1000106DA0023D0EB030063EB09
:10056000020211A608E0D8F800108B0701D50FA6EB
:1005700002E0490701D50EA601251146002408F125
:10058000240704E000F05CF930323A55641C50EA6C
:100590000102F7D12B46324621464046BDE8F041E4
:1005A00000F093B9000000002D0000002B000000B7
:1005B0002000000030B4002100F1240408E002F023
:1005C0000705D208303542EA4372DB086554491CFE
:1005D00052EA0305F3D10468002310A2250708D5C9
:1005E00004F020040C4304D0C46901230CA2641E4F
:1005F000C46130BC00F069B910B5044621461068EA
:10060000FFF79CFE02462046BDE810400023D1E7DC
:10061000D21D22F00701D1E90023CBE70000000042
:1006200030000000F0B40D460188090502D5214CC8
:100630007C4402E01F4C7C440E34002100F124066F
:1006400008E002F00F071209E75D42EA03721B0996
:100650007754491C52EA0307F3D1027800231207AA
:1006600004D5702D06D009B1022311342246F0BC06
:1006700000F02BB901231034F8E770B504460D469D
:1006800021461068FFF75AFE024629462046BDE87B
:1006900070400023C6E7D21D22F00703D3E90023F0
:1006A000C0E70368126843F0200303600823C361B6
:1006B0000023B7E7482800002DE9F05F894604468B
:1006C0004FF0000ADFF874B1FB44C0F820A02046C8
:1006D000E1688847002874D0252806D0D4E9012194
:1006E0009047206A401C2062F1E700265F462046C2
:1006F000E16888472028054607DB312D05D27819A7
:1007000010F8200C08B10643F1E7B00701D526F038
:100710000406C4F81CA00027C4F818A02A2D09D08C
:10072000284602F046FA38B304EB8708303DC8F893
:10073000185019E059F8041B204604EB8702916118
:10074000E1688847012F054618D1E069002820DAC2
:1007500026F020061DE0D8F8180000EB800005EB1D
:1007600040003038C8F818002046E1688847054640
:1007700002F01FFA0028EED1012F0AD02E2D08D149
:100780002046E16888477F1C0546022F46F0200678
:10079000C4DBA069002803DA404246F00106A061EC
:1007A000F00701D026F010066C2D0BD0682D09D073
:1007B0004C2D39D06A2D35D0742D35D07A2D33D0CB
:1007C00016E038E0E1682F4620468847B8420546E3
:1007D00009D16C2F26D04FF48060E1680643204693
:1007E0008847054604E06C2F1AD04FF4807006430A
:1007F0000DB3A5F14100192802D8203546F4006652
:100800004A462946204626604E46FFF7A9FC80B19D
:1008100001280BD0F61D26F0070000F1080956E765
:100820004020E4E78020D8E70020D6E706F104095D
:100830004DE7284652E7206ABDE8F09FD827000020
:1008400030B5B0F10A024FEA900E71F100034EEAA2
:10085000817EB0EB0E0061EB91014FEA101E4EEA73
:10086000017E10EB0E0041EB11114FEA102E4EEA03
:10087000016E10EB0E0041EB11214FEA104E4EEAD3
:10088000014E10EB0E0041EB1141401841F1000107
:100890004FEAD00040EA41704FEAD10110EB8005E9
:1008A0004FEA810444EA907444EB01046D1944EB6F
:1008B0000404521BA3414FF0000348BF0A3200D585
:1008C00030BD401C41F1000130BD2DE9F0470D461F
:1008D00099469246044600F124080168880604D52A
:1008E000E06921F01001216000E00120A84201DD53
:1008F000471B00E00027A1697A1902EB0900081ADA
:10090000A0612078C00602D42046FFF7E7FC00264D
:1009100008E0D4E901211AF806009047206A401C3B
:10092000761C20624E45F4DB2078C0060AD52046AE
:10093000FFF7D4FC06E0D4E9012130209047206A7B
:10094000401C2062381EA7F10107F4DC07E0D4E95F
:10095000012118F805009047206A401C2062281EDB
:10096000A5F10105F3DC2046FFF7CEFC2078000658
:1009700002D50220BDE8F0870120FBE770472DE992
:10098000FF4F0C461E464FF0FF378BB0D2E90001F7
:10099000DDF860800A908A46C1F30A5505B93D46E4
:1009A000002108464FF00000BAF1000F00F44000AB
:1009B00005DA00EB80004FF4400101EA50004FEAF5
:1009C0009059B9F1010F00DDB9460A9850EA4A0082
:1009D0000ED044F61050A5F2FF3545432F14B8F160
:1009E000000F1ED07542291E1EDDC9F100021CE059
:1009F000B8F1010F4FF0000001D0302103E0F243C5
:100A000005E02154401CB042FBDB304600220021AF
:100A100021540B99C1F80880C1E900200FB0BDE84E
:100A2000F08FBD1B6D1CDEE74A4600DA694206A85E
:100A300000F0EEFB06AB93E8070003AB83E807008A
:100A400050460A9900F0A3FC8DE80700A0F500507D
:100A50001F3800900398002D09DD42F21F014A461D
:100A6000084403A90390684600F002FF08E0A0F5DF
:100A700000504A461F3803A90390684600F00CFF57
:100A80008DE807000004000C03D04FF0FF30410850
:100A900000E01046B8F1000F03D000220092154686
:100AA0001EE0751E05D4FFF7CBFE303262556D1E79
:100AB000F9D5B3460122084302D000227F1C04E08E
:100AC0002078302801D100227F1E002A099786D085
:100AD0001DE0112D07DAFFF7B3FE303262556D1CB1
:100AE00050EA0102F5D1084302D00098C8B10EE0E7
:100AF0000021681E05E0235C625C63542254401EA2
:100B0000491C8142F7DBAB46A81B401E0990002020
:100B100004F80B000B98099AC0F80880C0E9002B74
:100B20007CE711264FF0000859E72DE9F04F884681
:100B30000446D21D22F0070191B0D1E90001CDE9B0
:100B40000A0102F022F802460B98C00F01D02D20B6
:100B500007E02068810701D52B2002E0202101EA6F
:100B6000C000032A099001D0072A05DB034641464D
:100B7000204600F00DFB0BE12078800601D5E069EE
:100B800000E00620B8F1650F814606D0B8F1660F87
:100B900018D0B8F1670F70D131E00020B9F1110F12
:100BA000009001DB112301E009F101030AAA01A968
:100BB0000CA8FFF7E4FEDDE90C70002609F1010541
:100BC000834647E001204B4600904FF000470AAAB9
:100BD00001A90CA8FFF7D3FEDDE90DB00C995D4625
:100BE000002610B909F101000D18B9EB050003D476
:100BF000C0F1FF3609F10105A5EB09002BE0B9F1C1
:100C0000010F01DA4FF001090020B9F1110F009036
:100C1000484601DD112300E003460AAA01A90CA8F9
:100C2000FFF7ADFEDDE90C704D46002683462078C7
:100C300000070AD4AB4500DA5D4601A8012D04DDAA
:100C4000411911F8011C302907D04F4502DA17F17C
:100C5000040F04DA012082460FE06D1EEEE7002F3C
:100C600002DCED1B3E4403E0781CA84200DD7D1C45
:100C7000B81B00F1010A4FF000472078000703D4A9
:100C8000AA4501DB4FF0FF3A0021B7F1004F0DF10B
:100C900043088DF8431024D002202B23002F01DAC3
:100CA0007F422D230A21021EA0F1010000DC5FB16A
:100CB00097FBF1FC97FBF1F201FB1C7C17460CF152
:100CC000300C08F801CDEEE7A8F10100037021888F
:100CD000090501D5452100E06521A0F1010800F8D2
:100CE000011C09980FA9A1EB0807FF1D00B1012005
:100CF000411901EBEA70A1693844081A401EA0614D
:100D00002078C00602D42046FFF7E8FA099828B1F7
:100D1000D4E901219047206A401C20622078C00657
:100D200022D52046FFF7DAFA1EE0002E04DBB34599
:100D300002DD01A8805D00E03020D4E90121904768
:100D4000206A401C2062761CAAF101005FEA000ABA
:100D50000AD100F019FAC0680168405CD4E90121A9
:100D60009047206A401C2062281EA5F10105DCDCAA
:100D700007E0D4E9012118F8010B9047206A401CD4
:100D80002062381EA7F10107F3DC2046FFF7BCFA0A
:100D9000032011B043E600002DE9F04F04460D4654
:100DA000D21D22F0070089B0D0E9009248461746CC
:100DB000394601F0EAFE0246F80F01D02D2307E084
:100DC0002068810701D52B2302E0202101EAC0031E
:100DD0008DF820300BB1012000E00020032A82466C
:100DE00001D0072A04DB2946204600F0D1F93DE175
:100DF0002078800601D40D2500E0E569C7F30A5686
:100E00000D2D49DA00214FEA175B08464FF000002C
:100E1000002F00F4400007DA00EB80004FF440019F
:100E200000EBD07001EA60008115012901DD4FF06F
:100E3000FF3100224FEA850CBCF1180F06D3134690
:100E4000ACF118004FF08052C24003E04FF4801321
:100E500023FA0CF30CF10C0CBCF1200F04D3ACF111
:100E6000200C09FA0CF001E007FA0CF000294FF011
:100E7000004801DD18B90FE00ED140450CD319EB45
:100E800002095F4121B9404502D19F4329EA020985
:100E9000BBEB175F00D0761C2088000502D57B488D
:100EA000784402E079487844193808AA302302F8D7
:100EB0000A30037C0AF10101002E0AF1020A5354A0
:100EC0006A4602DC4FF0300101E04FF031014FF093
:100ED00001088DF8001002D0A6F2FF3603E059EAAF
:100EE000470100D06A4E002D02DC2178090704D5A5
:100EF0004FF002082E218DF80110C44600210BE0AE
:100F0000C7F303433F01C35C491C6D1E02F8083060
:100F1000052908F1010801DA002DF1DC00210CE0BF
:100F200000EB1973491C1B786D1E082902F8083064
:100F30004FEA091908F1010801DA002DF0DC2178E7
:100F4000890602D514E0A8F10108E04505DD02EBB1
:100F5000080111F8011C3029F5D0B8F1000F07DDA8
:100F600002EB080111F8011C2E2901D1A8F101089A
:100F7000002D05DD3E2102F808106D1E08F1010864
:100F8000407C002E02F8080008F1010804DA2D2048
:100F9000764202F8080002E02B2002F808000A213D
:100FA0004FF47A70864208F101080BDB96FBF0F3F0
:100FB000303302F8083096FBF0F308F1010800FB2B
:100FC000136601E0642E0CDB642096FBF0F33033F3
:100FD00002F8083096FBF0F308F1010800FB1366F5
:100FE00001E00A2E06DB96FBF1F0303002F8080033
:100FF00008F1010896FBF1F001FB1060303002F8B7
:101000000800A16908F1010808EB050202EB0A00DB
:10101000081AA0612078C00602D42046FFF75EF9C6
:10102000216A08AE01EB0A00206204E0D4E9012144
:1010300016F8010B9047BAF1010AF7D22078C006E2
:1010400002D52046FFF74AF96E4609E016F8010B73
:101050003E280FD0D4E901219047206A401C20622D
:10106000B8F10108F2D22046FFF74EF909B003208B
:10107000BDE8F08F206A2844206203E0D4E9012112
:10108000302090476D1EEBD3F8E7000024200000CD
:1010900002FCFFFF10B5436913B1AFF3008001E01C
:1010A000FFF755F9012010BD127800F124010A70F4
:1010B00000224A700122EDE711684FF0FF32E9E7A4
:1010C00010B5436913B1AFF3008001E0FFF7D6F923
:1010D000012010BD128800F1240182840022C28404
:1010E0000122EDE711684FF0FF32E9E770B51646CF
:1010F0000C46054600F040F8036893F8010101280A
:1011000006D0FF2C0FD8185D68B101202C7070BD7F
:10111000D3F807013246214603F207130344284659
:10112000BDE8704018474FF0FF3070BD754600F0C5
:10113000E3F8AE4605006946534620F007008546B1
:1011400018B020B5FFF784F8BDE820404FF0000646
:101150004FF000074FF000084FF0000B21F007019F
:10116000AC46ACE8C009ACE8C009ACE8C009ACE8E2
:10117000C0098D467047000010B500F005F8001D4D
:1011800010BD00BFBD1C000000487047500E00207D
:101190002DE9F0411F46044603260168072A01F4A1
:1011A000006004DB08B116A505E016A503E008B150
:1011B00015A500E015A521F010002060A069C01E53
:1011C000A0610FB1401EA0612046FFF787F84FB124
:1011D000D4E9012138469047206A401C2062C01C97
:1011E000206206E0206AFAE7D4E9012115F8010B34
:1011F0009047761EF8D22046FFF786F8BDE8F081CA
:101200004E414E006E616E00494E4600696E6600AA
:101210002DE9F047814616468AB0334878440DC818
:101220008DE80D0030487844801C03AC0DC884E87C
:101230000D0041F69B300844372190FBF1F290FB02
:10124000F1F5A5F1800501FB12041B3C02D56442B7
:10125000012000E00020DFF890A080460027FA443B
:10126000AAF1BE0A0DE0E00709D03246684607EB56
:1012700047010AEB810100F00FFB8DE807006410C5
:101280007F1C002CEFD1184F7F44AC3F18E0E807DB
:1012900014D007EB04100DF1180A90E80E008AE84C
:1012A0000E00C068F04201D198190890324606A994
:1012B00003A800F0F1FA03AB83E807006D10641C8B
:1012C000002DE4D132466946B8F1000F03A802D0E0
:1012D00000F0CEFA01E000F0DFFAC9E90001C9F838
:1012E00008200AB0BDE8F087381D00000446AFF3BF
:1012F00000802046FEF797FF00487047300E002020
:101300004FF0013C50F8042B51F8043B9A4221D194
:10131000A2EB0C03934313EACC1317D150F8042B20
:1013200051F8043B9A4215D1A2EB0C03934313EA04
:10133000CC130BD150F8042B51F8043B9A4209D13D
:10134000A2EB0C03934313EACC13DBD04FF0000065
:10135000704700BFD01A01BAB1FA81F101F018014B
:1013600022FA01F0CB40C1F12001DBB2C0B2C01AB9
:101370002CFA01F3D11A914311EAC311E6D1704757
:1013800001491820ABBEFEE72600020070475FEA65
:10139000400C08BF91F0000F4FEA8C234FEAC122A6
:1013A00043EA51514FEA1C5018BF00F5F0404FEA94
:1013B000300018BF41F000415FEA6C5C00F029800A
:1013C000BCF1FF3F08BF40F080407047130C06BFE0
:1013D00012044FF0100C4FF0000C130E04BF120259
:1013E0000CF1080C130F04BF12010CF1040C930F45
:1013F00004BF92000CF1020CD30F04BF52000CF199
:10140000010C11464FF00002A0F11F00A0EB0C00F0
:10141000704711F0004F08BF704731F000413FF4B2
:10142000D5AF0B0C06BF09044FF0100C4FF0000CA9
:101430000B0E04BF09020CF1080C0B0F04BF0901CD
:101440000CF1040C8B0F04BF89000CF1020CCB0FC4
:1014500004BF49000CF1010CCCF12003A0EB0C00FF
:1014600022FA03F302FA0CF241EA030100F101004F
:10147000704720F07F4C80EA030023F07F47ACEBFD
:10148000070303F57C5300F0004003F1FF032DE94F
:1014900080494FEA154B09B44FEA144325EA0B4E35
:1014A00024EA03480FF2042606EB132749083E7886
:1014B0005FEA320203FB0667C7F5000707FB06F683
:1014C0004FEA54374FEAD64606F1020607FB066C90
:1014D000CCF1005C4FEA1C472CEA074C07FB06F4F2
:1014E0000CFB06F504EB15464FEA961634BF0020B8
:1014F0004FF000404FEAD13706FB07FC4FEA1C4C87
:101500000CFB0BF7D21B03FB0CF761EB07010CFB89
:101510000EF7B0EB074072EB17420CFB08F734BF35
:10152000A2EB0742B2EB074261EB17414FEA0C44D2
:101530004FEA910706FB07FC4FEA1C4C0CFB0BF72C
:10154000B0EBC74072EB573203FB0CF734BFA2EB92
:10155000C742B2EBC74261EB57310CFB0EF7B0EB61
:10156000C70072EB57720CFB08F734BFA2EBC7023F
:10157000B2EBC70261EB5771039F4FEA816141EA09
:10158000921104EBCC044FEAD1374FEA826206FB9A
:1015900007FC42EA90124FEA80604FEA1C4C0CFBB9
:1015A0000BF7D21B03FB0CF761EB07010CFB0EF7EB
:1015B000B0EB074072EB17420CFB08F734BFA2EB0D
:1015C0000742B2EB074261EB17414FEA8C554FEAF5
:1015D000910704EB9C2406FB07FC4FEA1C4C0CFB18
:1015E0000BF7B0EBC74072EB573203FB0CF734BF7D
:1015F000A2EBC742B2EBC74261EB57310CFB0EF7CF
:10160000B0EBC70072EB57720CFB08F734BFA2EBCC
:10161000C702B2EBC70261EB577115EB4C254FEADD
:10162000816141EA92114FEA82624FEAD13742EA80
:10163000901206FB07FC44F100044FEA80604FEA79
:101640001C4C0CFB0BF7D21B03FB0CF761EB0701E7
:101650000CFB0EF7B0EB074072EB17420CFB08F7E0
:1016600034BFA2EB0742B2EB074261EB174115EB27
:101670001C154FEA813141EA92414FEA823242EA37
:1016800090424FEA80304FEA0C7644F1000448EA79
:1016900003434EEA0B484FF0000EB2EB080C71EB1F
:1016A000030724BF624639464EEB0E0E4FF0000B87
:1016B0000018524149414BEB0B0BB2EB080C71EB9C
:1016C00003077BF1000B24BF624639464EEB0E0E3A
:1016D0004FF0000B0018524149414BEB0B0BB2EBA2
:1016E000080C71EB03077BF1000B24BF62463946FF
:1016F0004EEB0E0E51EA020718BF46F0010616EB3C
:101700000E7655F1000254F1000103D5BDE88901C0
:10171000BDE80088BDE88901BDE80048B61952411E
:1017200041EB0101A3F10103704780807F7E7D7C46
:101730007B7A7978777676757473727171706F6E63
:101740006E6D6C6C6B6A6A6968686766666564640E
:10175000636362616160605F5F5E5E5D5D5C5C5B98
:101760005B5A5A5959585857575656555555545407
:10177000535352525251515050504F4F4F4E4E4D65
:101780004D4D4C4C4C4B4B4B4A4A4A4949494848B1
:1017900048474747474646464545454444444443F1
:1017A00043434342424242414141002B26D4770009
:1017B00021D01CB54FEA370703B44FF010004FF0AB
:1017C00010014FF000000FBCBDE810400BF1010B01
:1017D000BBF1010F08BF5FEA170722BF12F1010238
:1017E00011F101014FF0004143F1000300F000400E
:1017F00043EA00007047F9D35708DAE746EA06469D
:1018000013F1400F4FEA16461FDD13F1200FDFBF23
:1018100016430A46002120335B42C8D0C3F120079B
:1018200046EA064602FA07F74FEA164646EA070670
:10183000C3F1200722FA03F201FA07F721FA03F1B4
:101840004FF0000342EA0702B1E746EA020646EA21
:1018500006464FEA164646EA0106BCBF46EA064679
:10186000360C4FF000034FF000024FF000019EE7EE
:101870002DE9C048934630B491E8380007C831EAF2
:10188000400C48BF34EA430C03D5FFF7F2FDFFF7E5
:101890008CFFF0BCBDE800882DE9C048934630B409
:1018A00091E8380007C810F0804F08BF13F0804F50
:1018B00003D100F005F8FFF778FFF0BCBDE8008821
:1018C00020F07F4780EA030023F07F4C07EB0C03F6
:1018D000A3F57C5300F00040A3F1FE0392F0000F4B
:1018E00000F0B38095F0000F00F077802DE90149FA
:1018F0004FEA11404FEA144621EA004800FB06FC7B
:1019000024EA064708FB06F607FB08F800FB07F782
:1019100018EB06484CEB164C4FEA124B18EB0748F5
:101920004FEA15464CEB174022EA0B4E0BFB06FC28
:1019300025EA06470EFB06F607FB0EFE0BFB07F734
:101940001EEB064E4CEB164C4FF000061EEB074EFE
:101950004CEB174B18EB0B0840F1000018EB0E0B8B
:1019600058EB000840F100008F1A4FF000013CBF17
:10197000C943661B14BFB5EB040C00213CBFC9432F
:10198000F61B4FEA17444EEA8E0E27EA04454FEA4B
:101990001C4704FB07622CEA074C05FB07F70CFB0E
:1019A00005F604FB0CFC16EB074642EB174216EB60
:1019B0000C4642EB1C421BEB060658EB020241416F
:1019C00046EA9E0601D5BDE80189B619524141EBB0
:1019D0000101A3F10103BDE801894FEA14454FEA73
:1019E000114724EA054621EA074C05FB07F406FBEC
:1019F00007F70CFB06F105FB0CFC11EB074144EB70
:101A000017444FEA124711EB0C4144EB1C4422EA05
:101A1000074C05FB07F206FB07F70CFB06F605FB78
:101A20000CFC16EB074642EB174216EB0C4642EB5A
:101A30001C456A1854F1000148BF7047B61952415D
:101A400041EB0101A3F10103704795F0000F37D07E
:101A50004FEA11424FEA144721EA024624EA074CB2
:101A600002FB07F106FB07F70CFB06F402FB0CFC7C
:101A700014EB074441EB17414FEA154714EB0C44B4
:101A800041EB1C4125EA074C02FB07F506FB07F773
:101A90000CFB06F602FB0CFC16EB074645EB174564
:101AA00016EB0C4645EB1C42121951F1000148BFE0
:101AB0007047B619524141EB0101A3F10103704790
:101AC0004FEA14454FEA114724EA054621EA074C3C
:101AD00005FB07F106FB07F70CFB06F24FF00006CB
:101AE00005FB0CFC12EB074241EB174112EB0C42D9
:101AF00051EB1C4148BF7047921841EB0101A3F123
:101B00000103704700B587B001214FF4017000F068
:101B100043FC4FF4004000F013FC0220ADF8180025
:101B200000208DF81B0003208DF81A0006A9194823
:101B300000F068F90020019001208DF808008DF870
:101B400009004FF4602003900020049001208DF8DC
:101B5000140001A9104800F04DF801210E4800F0D2
:101B60001DF80D4800F0CAF800BF0B4800F038F827
:101B70000028FAD1084800F0D1F800BF064800F06C
:101B800018F80028FAD10121034800F0BCF807B08A
:101B900000BD0000000801400024014021B182681E
:101BA00042F00102826003E0826822F0010282605A
:101BB0007047014600208A6802F004020AB1012041
:101BC00000E0002070470146C86C80B270470246B2
:101BD000002013680B400BB1012000E0002070478B
:101BE000014600208A6802F008020AB1012000E0E4
:101BF0000020704730B502460020002350680F4C8B
:101C000020400D790C6844EA052420435060906818
:101C10000B4C2040D1E902542C434D7944EA450451
:101C200020439060D06A20F470000C7C641EE4B203
:101C3000234340EA0350D06230BD0000FFFEF0FFB6
:101C4000FDF7F1FFF0B504460D4600200021092DF7
:101C500011DDE068A5F10A0606EB4607072606FA3D
:101C600007F18843A5F10A0606EB460603FA06F1DA
:101C70000843E0600CE0206905EB4507072606FAFB
:101C800007F1884305EB450603FA06F10843206196
:101C9000072A0FDA606B561E06EB86071F2606FA28
:101CA00007F18843561E06EB860605FA06F108433F
:101CB000606322E00D2A0FDA206BD61F06EB860741
:101CC0001F2606FA07F18843D61F06EB860605FA9B
:101CD00006F10843206310E0E06AA2F10D0606EB6E
:101CE00086071F2606FA07F18843A2F10D0606EBC8
:101CF000860605FA06F10843E062F0BD816841F00E
:101D000008018160704721B1826842F4A0028260BC
:101D100003E0826822F4A00282607047816841F08B
:101D200004018160704700002DE9F04104460D4632
:101D300000260723012221461048FFF783FF0027D2
:101D400013E001210D48FFF7DEFF00BF02210B4821
:101D5000FFF73DFF0028F9D00848FFF734FF06449D
:101D6000052000F02DFF781CC7B2AF42E9DB32201E
:101D7000B6FBF0F080B2BDE8F08100000024014025
:101D800000BFFEE77047000010B50548006818B9AD
:101D90000121880700F066FC082000F02DF810BD36
:101DA0000C81214210B50A2000F00AFF0F4800689C
:101DB00050B90F48007819300D490870084601786D
:101DC0000C4800F0DAFC0DE00848001D006848B936
:101DD0000748007819380649087008460178054810
:101DE00000F0CBFC602000F007F810BD1401214288
:101DF0001500002000040040014908607047000001
:101E0000140401402DE9F04102460025002600207F
:101E100000230024002791F803C00CF00F0591F86F
:101E200003C00CF0100CBCF1000F03D091F802C0FD
:101E30004CEA050591F800C0BCF1000F31D01468E0
:101E400000202BE04FF0010C0CFA00F3B1F800C0B9
:101E50000CEA03069E4220D183004FF00F0C0CFACF
:101E600003F7BC4305FA03FC4CEA040491F803C0F1
:101E7000BCF1280F06D14FF0010C0CFA00FCC2F89F
:101E800014C00AE091F803C0BCF1480F05D14FF02F
:101E9000010C0CFA00FCC2F810C0401C0828D1D379
:101EA0001460B1F800C0BCF1FF0F34DD54680020AD
:101EB0002EE000F1080C4FF0010808FA0CF3B1F81D
:101EC00000C00CEA03069E4221D183004FF00F0CA4
:101ED0000CFA03F7BC4305FA03FC4CEA040491F83E
:101EE00003C0BCF1280F05D100F1080C08FA0CF86A
:101EF000C2F8148091F803C0BCF1480F07D100F17B
:101F0000080C4FF0010808FA0CF8C2F81080401CC9
:101F10000828CED35460BDE8F0810000F0B50A4631
:101F2000002300240021002500F00046B6F1004FF8
:101F300002D11D4EF16901E01B4E7168C0F30345EB
:101F400083B200F44016B6F5401F08D121F070614D
:101F5000154E766826F07066134F7E6012E000F42E
:101F60008016B6F5801F06D1032606FA05F4A143B4
:101F700041F0706106E0460D360103FA06F6B14302
:101F800041F0706122B1460D360103FA06F6314385
:101F900000F00046B6F1004F02D1034EF16101E0BE
:101FA000014E7160F0BD00000000014041617047CA
:101FB00000BFFEE74CF6CC400149086070470000C6
:101FC0000030004070B505460C4645F2555000F013
:101FD0001FF8284600F010F8A0B200F013F800F047
:101FE00003F8FFF7E7FF70BD4AF6AA200149086031
:101FF0007047000000300040014948607047000011
:102000000030004001498860704700000030004007
:102010000149086070470000003000401CB50121F4
:10202000042000F0B9F97820ADF8040003208DF801
:10203000060048208DF8070001A90A48FFF7E2FED4
:102040000121082000F0A8F90820ADF800000320C5
:102050008DF8020028208DF8030069460248FFF73A
:10206000D1FE1CBD00080140000C014010B500F07D
:1020700059F80446012C06D0022C0AD0032C18D0A3
:10208000042C3ED129E000F0D7F800201F49086059
:102090003AE001201D49086064201D4A1070014685
:1020A0001C4800F06AFB1A4801781BA000F02EFEC5
:1020B0002AE017480078642804DA154800781930B7
:1020C0001349087012480178124800F056FB104876
:1020D000017811A000F01AFE16E00D4800780028E3
:1020E00004DD0B4800781938094908700848017860
:1020F000084800F042FB0648017807A000F006FE01
:1021000000BF00F099F800BF00BF10BDA0812142C0
:102110001500002000040040647573743A25640DB6
:102120000A00000010B500243148006890B914205E
:1021300000F046FD2E48006820B900BF2C4800681A
:102140000028FBD0142000F03BFD0124214629A0EB
:1021500000F0DCFD2648001D0068A0B9142000F046
:102160002FFD2348001D006828B900BF2048001D2E
:1021700000680028FAD0142000F022FD0224214635
:102180001CA000F0C3FD1A4808300068A0B9142054
:1021900000F016FD16480830006828B900BF144842
:1021A000083000680028FAD0142000F009FD03244C
:1021B000214610A000F0AAFD0D480C300068A0B91F
:1021C000142000F0FDFC0A480C30006828B900BF5C
:1021D00007480C3000680028FAD0142000F0F0FC0A
:1021E0000424214603A000F091FD204610BD00000C
:1021F0000C0121426B65793A25640D0A000000004C
:1022000008B50121082000F0C7F84FF4C070ADF800
:10221000000010208DF8030003208DF802006946AD
:102220000448FFF7EFFD4FF4C0710248FFF7BEFE10
:1022300008BD0000000C014010B51A4800784B287A
:1022400007DD18480078642803DC19201649087057
:1022500022E014480078322807DD124800784B2825
:1022600003DC32201049087016E00E480078192867
:1022700007DD0C480078322803DC4B200A4908703F
:102280000AE008480078002806DB0648007819288C
:1022900002DC64200449087003480178034800F018
:1022A0006CFA10BD00000020150000200004004062
:1022B00000BFFEE77047000070B5002100230F2229
:1022C000C47804B3154C246804F4E064C4F5E064F5
:1022D000210AC1F10403CA40447804FA03F1847866
:1022E0001440214309010E4C0678A155047804F0EE
:1022F0001F050124AC4005786D11AD0005F1E02506
:10230000C5F8004109E0047804F01F050124AC4041
:10231000044D0678761145F8264070BD0CED00E0BE
:1023200000E400E080E100E002490143024A11605C
:10233000704700000000FA050CED00E07047000057
:1023400001460020034A506820F440400843506092
:10235000704700000010024029B1064AD2690243CA
:10236000044BDA6104E0034AD2698243014BDA612B
:10237000704700000010024029B1064A126902436A
:10238000044B1A6104E0034A12698243014B1A614B
:10239000704700000010024029B1064A92690243CA
:1023A000044B9A6104E0034A92698243014B9A61AB
:1023B000704700000010024029B1064AD26802436B
:1023C000044BDA6004E0034AD2688243014BDA60CE
:1023D000704700000010024030B5002100220024A8
:1023E00000232D4D6D6805F00C0121B1042905D0A5
:1023F000082923D105E0294D056022E0274D05601D
:102400001FE0254D6D6805F47012234D6D6805F4CD
:102410008034022505EB92421CB9214D55430560DD
:102420000BE01D4D6D6805F400351DB11C4D554385
:10243000056002E0194D5543056002E0174D056047
:1024400000BF00BF144D6D6805F0F0010909154D7E
:102450006B5C0568DD4045600F4D6D6805F4E0611B
:10246000090A104D6B5C4568DD4085600A4D6D685A
:1024700005F46051C90A0B4D6B5C4568DD40C560D1
:10248000054D6D6805F44041890B074D6B5CC568CF
:10249000B5FBF3F5056130BD0010024000127A0073
:1024A00000093D000100002011000020704710B518
:1024B00000F002F810BD00000CB500200190009063
:1024C0003348006840F480303149086000BF30482C
:1024D000006800F4003000900198401C01900098C2
:1024E00018B90198B0F5A06FF1D12948006800F43F
:1024F000003010B10120009001E000200090009811
:10250000012843D12348006840F0100021490860A9
:102510000846006820F0030008600846006840F0A4
:10252000020008601A484068194948600846406837
:1025300048600846406840F480604860084640684B
:1025400020F47C1048600846406840F4E810486079
:102550000846006840F08070086000BF0C480068C2
:1025600000F000700028F9D00948406820F003000E
:10257000074948600846406840F00200486000BFD4
:102580000348406800F00C000828F9D10CBD000099
:1025900000100240002002407047000010B51348B0
:1025A000006840F001001149086008464068104981
:1025B00008400E494860084600680E4908400B492B
:1025C00008600846006820F48020086008464068DB
:1025D00020F4FE0048604FF41F008860FFF767FF9B
:1025E0004FF000600449086010BD00000010024078
:1025F0000000FFF8FFFFF6FE08ED00E010B5012136
:10260000880700F03BF800B30121880700F027F8A5
:102610000E480078401C0D490870084600780228D2
:102620000FD100200A49087008460178094800F0D7
:10263000A4F800200549087000214FF0804000F008
:1026400011F80121880700F00AF810BD1C000020D5
:102650001500002000040040CA4302827047CA43AC
:102660000282704721B1028842F00102028004E038
:1026700002884FF6FE731A400280704730B502465A
:10268000002000230024158A05EA0103958905EA44
:10269000010413B10CB1012000E0002030BD1AB1DB
:1026A00083890B43838102E083898B438381704755
:1026B00001894FF6F87211400181704770B500240E
:1026C00000220023058C4FF6EF7635400584028CFE
:1026D0008388048B48F6FF752C404FF6FF452C404D
:1026E0000D884FF6FF7606EA05252C434FF6DF7579
:1026F0002A400D8906EA05152A434D8806EA051584
:102700002A43154DA84202D0144DA8421DD14FF6C0
:102710007F752A404D894FF6FF7606EA05152A4354
:102720004FF6BF752A408D8806EA05152A434FF6F5
:10273000FF352B404FF2FF752B408D8906EA85054A
:102740002B43CD8906EA85052B4383800483CD88FE
:102750000587028470BD0000002C01400034014058
:102760000A460021018B4FF2FF7319404FF6FF73A9
:1027700003EA022319430183704701877047000071
:10278000002202881D4B98420ED01D4B98420BD060
:10279000B0F1804F08D01B4B984205D01A4B98429D
:1027A00002D01A4B984204D14FF68F731A404B88CF
:1027B0001A43174B984207D0164B984204D04FF655
:1027C000FF431A40CB881A4302808B8883850B888D
:1027D00003850A4B98420BD0094B984208D00E4B08
:1027E000984205D00D4B984202D00D4B984201D132
:1027F0000B7A03860123838270470000002C01407E
:10280000003401400004004000080040000C00407B
:10281000001000400014004000400140004401400E
:10282000004801401FB501210846FFF795FD4FF014
:102830008040FFF73DFF0020ADF80A00ADF806002C
:102840004CF24F30ADF8080041F61F40ADF80400DF
:1028500000208DF80C0001A94FF08040FFF790FF99
:1028600001218807FFF7F8FE012211469007FFF7C4
:1028700016FF4FF4A060FFF757FD1C208DF80000F5
:1028800001208DF8030003208DF8010001208DF850
:1028900002006846FFF710FD01218807FFF7E2FEFE
:1028A0001FBD000010B540F225511E4800F0A7F8EA
:1028B00050B31C4800F05EF9C1B21B4802780078A2
:1028C000401C194B18701948815418460078801E16
:1028D0001649085C0D2801D1012000E000201249B2
:1028E0000978491E114A515C0A2901D1012100E0F1
:1028F0000021084348B100210B480078801E0B4A94
:1029000011540020084908700AE040F224410548AB
:1029100000F075F820B1034800880248001D0088C7
:1029200010BD000000480040160000208009002073
:1029300021B1828942F40052828104E082894DF6FD
:10294000FF731A408281704710B5044620488442C4
:1029500009D101218803FFF72FFD00214FF48040AA
:10296000FFF72AFD32E01B48844209D101214804C7
:10297000FFF702FD00214FF40030FFF7FDFC25E0DA
:102980001548844209D101218804FFF7F5FC002194
:102990004FF48020FFF7F0FC18E01048844209D182
:1029A0000121C804FFF7E8FC00214FF40020FFF7E5
:1029B000E3FC0BE00A48844208D101210805FFF737
:1029C000DBFC00214FF48010FFF7D6FC10BD0000A7
:1029D000003801400044004000480040004C0040E6
:1029E0000050004002460020B1F5007F00D100BF3A
:1029F00013880B400BB1012000E00020704770B538
:102A00000246002400230025002040F66A16B14249
:102A100000D100BFC1F3421501F01F03012606FAE1
:102A200003F3012D02D19689334006E0022D02D135
:102A3000168A334001E0968A33400C12012606FACA
:102A400004F41688344013B10CB1012000E00020DA
:102A500070BDF0B50346002400260025002040F696
:102A60006A17B94200D100BF1846C1F3421401F001
:102A70001F06012707FA06F5012C01D10C3004E0EE
:102A8000022C01D1103000E014301AB107682F4336
:102A9000076002E00768AF430760F0BD2DE9F0472B
:102AA00086B005460E460024A24600BFA146002778
:102AB000B08900B100BF2F462C8A4CF6FF7004404D
:102AC000F08804432C82AC894EF6F3100440B088A1
:102AD00031890843718908430443AC81AC8A4FF6BD
:102AE000FF400440B0890443AC8201A8FFF774FCA6
:102AF0001F48874202D1DDF810A001E0DDF80CA0EC
:102B0000A88900F4004040B10AEBCA0000EB0A10AB
:102B100031684900B0FBF1F807E00AEBCA0000EBAE
:102B20000A1031688900B0FBF1F86420B8FBF0F0BE
:102B300004012009642101FB1089A88900F40040E8
:102B400040B1322000EBC900B0FBF1F000F007000B
:102B5000044308E0322000EB09106421B0FBF1F0DF
:102B600000F00F0004432C8106B0BDE8F0870000A0
:102B70000038014001468888C0F308007047C1F35F
:102B800008028280704700BFFEE7490050EAC1207A
:102B900018BF04204A0D18BF40F0010040F2FF7238
:102BA000B2EB515F08BF40F00200012808BF0520CA
:102BB000704730380A2801D2012070470020704742
:102BC00010B50446B4F5E96F02DB4FF4E96000E0AC
:102BD0002046044642F2283060434FF0E02148612D
:102BE000002088610120086100BF4FF0E0200069EB
:102BF00000F480300028F8D04FF0E020006920F089
:102C000001004FF0E0210861FFF7EEF910BD000070
:102C1000FFF7F6FAFFF702FAFEF774FF64214FF4AC
:102C2000347000F023F8FFF7FDFD40F2712105201C
:102C3000FFF7C8F94FF4E13000F090F806A000F07B
:102C400065F807E00A210120FFF76EF806490870D1
:102C5000FFF70CFAF6E70000B3F5CABCBBAFCDEA4C
:102C6000B3C90D0A000000000000002030B589B093
:102C700004460D4601210220FFF76EFB01210920C9
:102C8000FFF78AFB01211E48FFF748F92020ADF825
:102C9000200018208DF8230003208DF8220008A9B9
:102CA0001848FFF7AFF8681E80B2ADF81800601E34
:102CB00080B2ADF814000020ADF8160005A9124846
:102CC000FFF75EFD6020ADF804000120ADF80600BE
:102CD0003220ADF80A000020ADF80C004FF48070EF
:102CE000ADF8100001A90848FFF7E8FC08210648E4
:102CF000FFF736FD01210448FFF7B4FC09B030BDF1
:102D000000081A00000C0140000400400FB438B560
:102D100005A800900F48009A0499FDF7ABFA00202F
:102D200000900C48FDF7B8FA85B200240DE000BF12
:102D300040210948FFF756FE0028F9D00548015DFB
:102D40000548FFF71CFF601C84B2AC42EFDB38BCC7
:102D50005DF814FB780200200048004010B586B0F2
:102D6000044601210820FFF717FB01218804FFF723
:102D7000F3FA2548FFF7E8FD4FF48060ADF8100046
:102D800003208DF8120018208DF8130004A91F48A5
:102D9000FFF738F84FF40060ADF8100004208DF80C
:102DA000130004A91948FFF72DF800940020ADF88E
:102DB0000400ADF80600ADF80800ADF80C000C20DA
:102DC000ADF80A0069461048FFF768FE01210E4879
:102DD000FFF7AEFD012240F225510B48FFF739FE07
:102DE00027208DF8140002208DF8150003208DF89F
:102DF000160001208DF8170005A8FFF75DFA0020E6
:102E00000349088006B010BD00480040000C014096
:102E10001800002010B500290AD00878002807D033
:102E200005487844FEF76CFA002801D0002010BD58
:102E30000248784410BD00006E01000066010000E9
:102E400010B500290AD00878002807D00548784432
:102E5000FEF756FA002801D0002010BD0248784441
:102E600010BD00005E01000056010000FDF75DBED0
:102E7000FDF792BF00000000000000003031323347
:102E8000343536373839414243444546403058009E
:102E900030313233343536373839616263646566D0
:102EA000403078000400000800000000000000022C
:102EB0000001000010303132333435363738396193
:102EC000626364656678700030313233343536378A
:102ED0003839414243444546585000000240000002
:102EE000000000A00000000005400000000000C835
:102EF000000000000C4000000000409C00000000AA
:102F0000194000000020BCBE00000000344000005A
:102F1000BFC91B8E00000004B5400000504BCFD04D
:102F20006607E2CF010000006C4100003E8251AA1A
:102F3000DFEEA73401000000D9420000DCB5A0E2BA
:102F40003A301F97FFFFFFFFB4450000FD25A0C8E2
:102F5000E9A3C14FFFFFFFFFFF3F0000000000801B
:102F600000000000FF3F00000000008000000000A3
:102F7000BC300008000000202000000028010008EC
:102F8000DC3000082000002070140000440100081C
:102F90001C00000043000000F8FFFFFF0C000000D1
:102FA0000E0000000F0000002E00000010010000C5
:102FB00043000000F8FFFFFF004040404040404019
:102FC00040404141414141404040404040404040FC
:102FD00040404040404040404005020202020202A0
:102FE00002020202020202020220202020202020EF
:102FF0002020200202020202020290909090909003
:1030000010101010101010101010101010101010C0
:103010001010101002020202020288888888888834
:103020000808080808080808080808080808080820
:103030000808080802020202400000000000000028
:103040000000000000000000000000000000000080
:103050000000000000000000000000000000000070
:103060000000000000000000000000000000000060
:103070000000000000000000000000000000000050
:103080000000000000000000000000000000000040
:103090000000000000000000000000000000000030
:1030A0000000000000000000000000000000000020
:1030B0000000000000000000000000000000000010
:1030C00000010203040102030406070809020406C2
:0C30D000080000000000000000000000EC
:04000005080000ED02
:00000001FF
